:1000000071C000008EC000008CC000008AC00000DB
:1000100088C0000086C0000084C0000082C00000CC
:1000200080C000007EC000007CC000007AC00000DC
:1000300078C0000076C0000074C0000072C00000EC
:1000400070C000006EC000006CC000006AC00000FC
:1000500068C0000066C0000064C0000062C000000C
:1000600060C000005EC000005CC000005AC000001C
:1000700058C0000056C0000054C0000052C000002C
:1000800050C000004EC000004CC000004AC000003C
:1000900048C0000046C0000044C0000042C000004C
:1000A00040C000003EC000003CC000003AC000005C
:1000B00038C0000036C0000034C0000032C000006C
:1000C00030C000002EC000002CC000002AC000007C
:1000D00028C0000026C0000024C0000022C000008C
:1000E00020C0000011241FBECFEFD1E2DEBFCDBF84
:1000F00000E00CBF12E0A0E0B2E0EEEAF1E000E0C8
:100100000BBF02C007900D92A234B107D9F722E0CD
:10011000A2E4B2E001C01D92A834B207E1F70BD00F
:1001200044C06ECF9091C00095FFFCCF8093C60075
:1001300080E090E0089580E092E090934502809303
:1001400044028EE092E001D0FFCF0F931F93CF9334
:10015000DF93E0914402F0914502238121FF1BC00F
:100160008C01D0E0C0E0F80181918F0160914402E0
:1001700070914502DB011896ED91FC911997882347
:1001800031F01995892B79F3DFEFCFEFECCF8AE0CF
:100190001995892B19F08FEF9FEF02C08D2F9C2F9F
:0E01A000DF91CF911F910F910895F894FFCF3A
:1001AE000000000200000000920000000000426FFC
:1001BE006F746C6F616465722070726F7065726CB3
:1001CE00792070726F6772616D6D65642C20616E3F
:1001DE00642072616E206D65212048757A7A61689F
:0201EE002100EE
:00000001FF
